:1000000056C0E2C0C2C061C009C15FC05EC05DC071
:100010005CC05BC05AC059C058C092C056C055C0E1
:1000200054C053C052C00D0A002C20534C4F5700EF
:100030002C2046415354002C20494E5354002C2070
:100040007553762F68722C20002C2043504D2C20A5
:10005000004350532C2000232068747470733A2F8F
:100060002F6769746875622E636F6D2F70686B659A
:10007000686C2F6765696765722D636F756E74654F
:10008000720D0A0023206D69676874796F686D2EA0
:10009000636F6D2047656967657220436F756E7485
:1000A000657220322E30302D4445560D0A00112441
:1000B0001FBECFEDCDBF20E0A0E6B0E001C01D9295
:1000C000A63BB207E1F740D1BDC29ACF5D9BFECF00
:1000D0008CB90895CF93DF93EC01CE01FE012491FA
:1000E000222329F02196FC018491F0DFF6CFDF91E5
:1000F000CF910895C49A90916F00911103C090B769
:10010000906490BF70E094E0660F771F9A95E1F7D6
:100110007093B5006093B40093B7926093BF86BFAD
:1001200089B7816089BF0895CF93DF93C0E6D0E09F
:100130008991882311F0CADFFBCFDF91CF91089519
:100140001F920F920FB60F9211248F939F9380915D
:10015000B4009091B50001979093B5008093B400DE
:100160008091B4009091B500892B41F489B78E7FBE
:1001700089BF13BE80B78F7B80BFC4989F918F913A
:100180000F900FBE0F901F9018951F920F920FB6F1
:100190000F9211248F939F938FE493EC0197F1F7C3
:1001A00000C00000839906C090916F0081E089270C
:1001B00080936F008AB780688ABF9F918F910F905C
:1001C0000FBE0F901F9018951F920F920FB60F92AF
:1001D00011242F938F939F938091AE009091AF0045
:1001E000019649F08091AE009091AF0001969093F6
:1001F000AF008093AE00969A87EC90E00197F1F7FC
:1002000000C00000969881E080936B009F918F91D1
:100210002F910F900FBE0F901F9018951F920F9265
:100220000FB60F9211242F933F935F936F937F9399
:100230008F939F93EF93FF9321E02093AD008091E4
:10024000AE009091AF009093B3008093B200E09124
:10025000AC00F0E0E059FF4F30818091B000909108
:10026000B100831B91099093B1008093B0008091FD
:10027000AE009091AF008F3F910549F040F08FEFB5
:1002800090E09093AF008093AE0020936E00209199
:10029000AE003091AF008091B0009091B100820F1C
:1002A000931F9093B1008093B000E091AC00F0E018
:1002B0008091AE009091AF00E059FF4F8083109283
:1002C0006D0010926C0080E0E091AC00E81BE7FD4F
:1002D000E45C0E2E000CFF0BE059FF4F9081209143
:1002E0006C0030916D00290F311D30936D0020930B
:1002F0006C008F5F853041F780916C0090916D00AC
:100300006CE070E009D190936D0080936C00809157
:10031000AC008F5F8093AC008091AC008C3310F008
:100320001092AC001092AF001092AE00FF91EF91CE
:100330009F918F917F916F915F913F912F910F903E
:100340000FBE0F901F90189588E19FE00FB6F894AC
:10035000A89581BD0FBE91BD12B893E399B98AB932
:1003600084E890E0B7DE87E590E0B4DE84E187BB07
:1003700080E481BB939A85B78A6085BF8BB7806C18
:100380008BBF82E480BF13BE1FBC8CE08EBD82E1B8
:100390009AE79BBD8ABD89B7806489BF789464E180
:1003A0008FEFA8DE2FEF8DEE92E02150804090403D
:1003B000E1F700C0000062E388EC9CDE84E6882E52
:1003C000912CA12CB12C90E1492E97E2592E612C51
:1003D000712C85B78F7A85BF85B7806285BF889578
:1003E00085B78F7D85BF80916B00882329F010929F
:1003F0006B0063E080EA7EDE8091AD00882309F423
:1004000080C01092AD0080916E00882389F06091C9
:10041000B2007091B30080E090E02CE330E040E067
:1004200050E08BD06B017C0110926E00C2E016C0D0
:1004300080916C0090916D00893E934040F0C09097
:100440006C00D0906D00E12CF12CC1E007C0C09091
:10045000B000D090B100E12CF12CC0E081E590E03B
:1004600039DE8091B2009091B3004AE060E670E01E
:10047000C0D05ADE89E490E02DDE2AE040E650E06C
:10048000C701B60195D050DE29E330E040E050E0EE
:10049000C701B60152D06B017C01A501940166D061
:1004A000CA01B901A501940161D08B018EE390E0EE
:1004B00011DEC701B601A301920158D0DA01C901CA
:1004C0004AE060E670E095D02FDE8EE2FFDD0A3074
:1004D00010F480E3FBDD4AE060E670E0C80189D0FB
:1004E00023DEC23019F487E390E007C0C13019F46D
:1004F00080E390E002C089E290E0ECDD86E290E0EB
:10050000E9DD80916B00882329F010926B0063E095
:1005100080EAF0DDA8955DCF0024552704C0080EC1
:10052000591F880F991F009729F076956795B8F3A2
:100530007105B9F7802D952F0895EE27FF27AA277B
:10054000BB2708C0A20FB31FE41FF51F220F331FE4
:10055000441F551F969587957795679598F370403A
:10056000A9F7009799F7BD01CF010895A1E21A2ECE
:10057000AA1BBB1BFD010DC0AA1FBB1FEE1FFF1F47
:10058000A217B307E407F50720F0A21BB30BE40B97
:10059000F50B661F771F881F991F1A9469F76095DE
:1005A0007095809590959B01AC01BD01CF01089598
:1005B000BB27FA01A62F6217710581059105330B40
:1005C00030FB66F0AA27660F771F881F991FAA1FA6
:1005D000A21710F0A21B63953850A9F7A05DAA33AB
:1005E00008F0A95DA19336F7B111B1931082CA0149
:1005F00019C0BB27FB015527AA27880F991FAA1FDF
:10060000A41710F0A41B83955051B9F7A05DAA332D
:1006100008F0A95DA193009779F7B111B1931192F8
:10062000CB0100C0DC01FC01672F71917723E1F75A
:10063000329704C07C916D9370836291AE17BF07AF
:08064000C8F30895F894FFCF00
:00000001FF
